:020000040000FA
:020000001528C1
:100008007E1480318B1D09280A2813280B1C0D2803
:100018000E2813288131FF218031132813287E10E0
:1000280009001628823152228031AC0082315322D5
:100038008031AD00823154228031AE0082315522A8
:100048008031AF00A701A801A901AA01AB017E1068
:1000580020002E288131BF2180318131F521803166
:10006800D030F8000730F9008031CD2080312000F1
:100078002F08F3002E08F2002D08F5002C08F400D4
:100088002B08F7002A08F6008131432180318B17AD
:100098000B178131E12180312000A301A401270839
:1000A800A0002808A1002908A2005A282000A501BC
:1000B800A6012608803AFA0080307A02031D6628D5
:1000C8000A302502031C69286A286C28C728C72813
:1000D80005302000AE070030AF3D0530AC070030DA
:1000E800AD3D0530AA070030AB3D01302F022C3062
:1000F80003192E02031C812882288528AE01AF012E
:10010800852801302D022C3003192C02031C8D2860
:100118008E289128AC01AD01912801302B022C309A
:1001280003192A02031C99289A289D28AA01AB01C1
:100138009D282F08F3002E08F2002D08F5002C0842
:10014800F4002B08F7002A08F6008131432180319A
:100158001130FA003A30890BAF28FA0BAF28003279
:1001680001302000A5070030A63D2608803AFA0095
:1001780080307A02031DC2280A302502031CC528D4
:10018800C6286C28C7288131622180315A285A280C
:1001980015288131EB21803175308400823085004B
:1001A800003FF000013FF10082312F2280317908B1
:1001B800F1007808F00082313522803175308400F2
:1001C80082308500003FF000013FF1008231232298
:1001D80080317908F1007808F000823129228031D5
:1001E8007530840082308500003FF000013FF10047
:1001F8008231172280317908F1007808F0008231C5
:100208001D2280317730840082308500003FF20063
:10021800013FF3007730840082308500003FF4000E
:10022800013FF5007730840082308500003FF600FA
:10023800013FF700813143218031080022008C0101
:10024800293021008C00013023008C0024008C010F
:100258002100951325008C01373026008C00823050
:1002680022009D0027001310121011147930F0009D
:100278000230F10082314D2281318B15080073085C
:10028800F1007208F00082314722813182317222F6
:1002980081317508F1007408F00082314122813102
:1002A80082316F2281317708F1007608F0008231BF
:1002B8003B22813182316C2281310800823109224E
:1002C800813121001D1023000C1021000C14003076
:1002D800F200F3000030F400F5000030F600F700FB
:1002E8008131432181316300000021000C14230077
:1002F8000C1021001D1008003B00BC01BD01BE010F
:10030800BF01C001B201B101B401B301B6010130AE
:10031800B500B8010130B700BA01B901C030BB005F
:1003280008003B00AC01AD01AE01AF01B001A20174
:10033800A101A401A301A6010130A500A801013073
:10034800A700AA01A901C030AB0008003B009C012E
:100358009D019E019F01A0019201910194019301C9
:100368009601013095009801013097009A01990192
:10037800C0309B0008008131222181318231102256
:1003880081318231562281318131AA2181318131F5
:100398009521813181318021813108007B087C04DD
:1003A8000319D729D829DE297C088A007B080A0086
:1003B8008131DE2927001310080082316022813143
:1003C80082315D22813182315A22813108008231A5
:1003D8006922813182316622813182316322813101
:1003E80008007A30F0000230F10082314D2281316C
:1003F8008B170B1708002700131C032A042A082A46
:100408008131D2218131082A08002930890B0A2A32
:10041800003223009D13080038302100990098010C
:1004280022009601080071083B00B2007008B10074
:10043800080071083B00B6007008B5000800710894
:100448003B00A2007008A100080071083B00A6004C
:100458007008A500080071083B0092007008910020
:10046800080071083B0096007008950008007108A4
:100478003B00B4007008B300080071083B00A400FA
:100488007008A300080071083B00940070089300EE
:1004980008007108FC007008FB000800C83400342C
:1004A8006434003416302100970008003B00BB1765
:1004B80008003B00AB1708003B009B1708003B00F7
:1004C800BB1308003B00AB1308003B009B1308005C
:1004D8003B00BF1708003B00AF1708003B009F1701
:0E04E80008000034003400340034080008001E
:020000040001F9
:04000E00A4FFFFDE6E
:00000001FF
