:020000040000FA
:020000001628C0
:100008007E1480318B190B1C0B284F2514280B1FCD
:1000180014282100111C14282000111C142848251C
:100028007E10090017280130CA00CB008C308400EC
:10003800203085006430FE000030FF01A024BE019E
:10004800BF01C001C101C201C301C401C5017E10C5
:100058002000DA282000A6003A250A30890B322829
:100068000000003070232108A700A801A801A501FD
:1000780025082607A4008600033087018101A50A08
:100088002502031C3C28003028021C3003192702D3
:10009800031C0800003028021C3003192702003016
:1000A800031C6028280252300319270203185F280E
:1000B8002608023ED62800302802523003192702AB
:1000C8000030031C79282802623003192702031C18
:1000D80076287828003028027D3003192702031873
:1000E8007F28CA20260AD128003028026230031946
:1000F800270203186E28003028027D3003192702D2
:100108000030031C9E2828028D3003192702031C87
:100118009B289D28003028029830031927020318CD
:10012800A4282608023E860087018101810A260844
:10013800D128003028028D300319270203188E2891
:10014800003028029830031927020030031CBA280F
:1001580028029E30031927020318B928260A8600A8
:1001680087018101810A2608D628003028029E309E
:1001780003192702031C0800013028020030031964
:10018800270203180800CA20260A97282608023ED4
:10019800860087018101810A0800860087018101A4
:1001A800810A080086008101810A0800D824D0301D
:1001B8002000A8000730A9000E2300226822BB01F6
:1001C800BB0A43302E2043030319EF2844030319C5
:1001D800EF28450BF028BB013B08031DE5280D302F
:1001E8002000BA002B30890BF728BA0BF72800003B
:1001F80043302E20440B07294503031D07294121BD
:100208007B30CB21E128430B10294403031D10291F
:1002180041219425CB21E128430803191529BD0163
:10022800BD0A440803191A290230BD0045080319FC
:100238001F290330BD00D030A2000730A3003D08BD
:10024800A4008D232000BC01BC0A43302E204308A3
:10025800031D35294408031D35294508031D352983
:10026800BC013C08031D2929A201A3013D08A400E3
:100278008D2320003D085123E328A901AA01AD01DF
:10028800AE012E08A1002D08A0000530A200A30190
:1002980021242108AC002008AB002C08A3002B085F
:1002A800A2002C08A5002B08A4002C08A7002B08E6
:1002B800A6000B242000AD0A0319AE0A00302E0256
:1002C800C83003192D02031C4529A90A0319AA0AD3
:1002D80000302A02033003192902031C43297F2115
:1002E8000B243D302000A800DF30890B7929A80BAA
:1002F800792900000800A201A301A401A501A60113
:10030800A7010800D030F2000730F300D030F40025
:100318000730F500D030F6000730F7005E245D2581
:100328000530F8000D30890B9729F80B9729003212
:10033800C324003A03199C292B303225C324003AE0
:100348000319A2292B303225C324003A0319A829FE
:100358002B303225C324003A0319AE292B3032251D
:10036800C324003A0319B4292B3032258A25003AD0
:100378000319BA292530F8008530890BC129F80BF3
:10038800C1290032562520008C1A0800C7292000F0
:10039800A90066302000A8007430890BD129A80B69
:1003A800D129003220007F210B246430200029024B
:1003B800031CEA296430A0002908DC23A5000330C7
:1003C800C3226430A0002908C423A9000A302902E6
:1003D800031CFA290A30A0002908DC23A5000230F2
:1003E800C3220A30A0002908C423A9002908031938
:1003F8000800A5000130C32A2000A901D030A200BE
:100408000730A300D030A4000730A500D030A600E4
:100418000730A7000B2409302000A8001C30890BE6
:10042800132AA80B132A000020007F210B2409306F
:100438002000A8001C30890B1F2AA80B1F2A0000C7
:1004480020000530A90A2902031C022A3D30200099
:10045800A800DF30890B2E2AA80B2E2A00000800DE
:1004680020004208A3004108A2004008A1003F085C
:10047800A0004C30A7009530A6007F30A5002D3095
:10048800A400E9222308C2002208C1002108C000F4
:100498002008BF000130BF070030C03DC13DC23D4C
:1004A8003F08AE004008AF004108B0004208B10064
:1004B8000330B136B00CAF0CAE0C890B5D2A2F0897
:1004C800AD002E08AC0008002000CB01CB0AB60115
:1004D80034222D08B5002C08B4002A303502AB3080
:1004E8000319340203187C2A360890220130892A1D
:1004F8005530350256300319340236080318872A56
:1005080090220230892A9022033081006430B60A92
:100518003602031C6C2AA92B8C3EB2002030B30192
:10052800B33D3208860033088700080022008C019A
:10053800293021008C00013023008C002030240059
:100548008C002100951325008C01373026008C0083
:10055800823022009D00270013109312121092126D
:1005680011149116BA302000A0000530A1006E25A4
:10057800B930A0000530A10069258B150800A70037
:10058800250803190800D030A2000730A300270867
:10059800A4008D2345302000A600FD30890BD22A07
:1005A800A60BD22A00002000A201A3012708A4005C
:1005B8008D2329302000A6009430890BE12AA60B50
:1005C800E12A00002000A503C42AA801A901AA0164
:1005D800AB01201CF72A2408A8072508A93D2608EE
:1005E800AA3D2708AB3DA435A50DA60DA70DA3363A
:1005F800A20CA10CA00C2308220421042004031D32
:10060800ED2A2B08A3002A08A2002908A10028081F
:10061800A00008008E252000A001A1010A252000C5
:100628002908A1002808A00012252000A001A10186
:10063800FA2420002908A1002808A000022520008B
:10064800A001A101EA2420002908A1002808A0008F
:10065800F22420007F210B2CA600D030A200073006
:10066800A3002608A4008D2329302000A50094307B
:10067800890B3C2BA50B3C2B00002000A201A301F9
:100688002608A4008D2329302000A5009430890B6A
:100698004B2BA50B4B2B00000800B8003E08BD23D0
:1006A8003806031D5B2BBE0AB901B90A5E2B00226E
:1006B8002000B9013908031D622B682A4B083E0245
:1006C800031C08003D302000B700DF30890B6A2B7F
:1006D800B70B6A2B0000A92B2000A300A200A20DD3
:1006E800A20D21001D0820002206833922062100C0
:1006F8009D001D1421009D149D18802B1C082000AE
:10070800A100A00121001B082000A0070318A10ACE
:10071800080003302406031D972B2308A100220894
:10072800A0002A25AC2D02302406031DA12B230886
:10073800A1002208A0002225AA2D240B08002308C6
:10074800A1002208A0001A25A82D20004B084A0263
:100758000318B02B4B08CA00CB0ABE01A7014B08EF
:100768002702031808002708BD2330232000A70A02
:10077800B32B8C3E860020308701873D0108080096
:10078800A2000830A300A4012208A1000730A13666
:10079800890BCB2B24352104A400A2352008240280
:1007A800031CD82B2008A402A30BC82B240808007C
:1007B800A100A30120080319F22BA201A20AA01B81
:1007C800E72BA035E22BA33520082102031CEF2BD1
:1007D8002008A1022314A036A20BE72B2308080047
:1007E8002000990167309700693096001708FA00D1
:1007F800F9011608F904111021001114B83020006D
:10080800A0000530A1006425313098000800972524
:1008180020002308A1002208A0002A25AC252000DA
:100828002508A1002408A0002225AA2520002708C1
:10083800A1002608A0001A25A82DA401A501201CA6
:10084800292C2208A4072308A53DA235A30DA1360B
:10085800A00C20082104031D232C2508A10024082E
:10086800A00008003B00BC01BD01BE01BF01C001E2
:10087800B201B101B401B301B6010130B500B8014C
:10088800B700BA01B901C030BB0008003B009C01A9
:100898009D019E019F01A001920191019401930184
:1008A800960101309500980197009A019901C0308E
:1008B8009B00080086257308F1007208F0007D256A
:1008C800B6257508F1007408F0007825B425770876
:1008D800F1007608F0007325B2250800AC01AD01DF
:1008E800AE01AF01B001A201A101A401A301A601BB
:1008F8000130A500A801A700AA01A901C030AB00DA
:100908000800181D8E2C18107108970070089600A2
:100918001814080071089700700896000800200055
:100928004808490403199D2C49088A0048080A0008
:100938008431270013100800640001308001013160
:10094800FE020030FF3B7F087E0403190034A12C0F
:100958007B087C040319B52C7C088A007B080A00F4
:100968008431270093120800083023009F0090303C
:100978009D0024309E000C309B009C010800F00173
:100988002000111ECC2C23009E1ECC2CF001F00A56
:1009980070080800460847040319080047088A0039
:1009A80046080A00843108009A22412582254A24F3
:1009B8007224E1243624F423B82C013021009D0050
:1009C80070309E009F019B019C01080021083B009C
:1009D800B200200020083B00B100080021083B00BD
:1009E800B600200020083B00B500080021083B00A5
:1009F800A200200020083B00A100080021083B00BD
:100A0800A600200020083B00A500080021083B00A4
:100A18009200200020083B009100080021083B00BC
:100A28009600200020083B009500080021083B00A4
:100A3800B400200020083B00B300080021083B0058
:100A4800A400200020083B00A300080021083B0068
:100A58009400200020083B0093000800F0002000CC
:100A6800111E332D700823009A0008000A30890BE4
:100A78003B2D000023009D13080038302100990009
:100A8800980122009601080011107A08F1007908EF
:100A9800F0008524CE2C2700131C532D9324931E7D
:100AA8000800AC2C0A30890B572D000023009D1339
:100AB800080023009D170A30890B602D00000800EC
:100AC8002108C7002008C60008002108FC002008EB
:100AD800FB0008002108C9002008C80008007108A8
:100AE800B4007008B30008007108A4007008A300DF
:100AF800080071089400700893000800163021005F
:100B0800970008009D25B025AE25080023001E0C7F
:100B1800013908009125A225A02D3B009B13080050
:100B280020004A0808009A25A625A42D3B009B17FB
:100B380008003B009B170800BB130800AB13080014
:100B4800BB170800AB170800BF170800AF1708004D
:100B58009F170800BB170800AB170800BF1708004D
:100B6800AF1708009F1708000800080008000800D1
:020000040001F9
:04000E00A4FFFFDE6E
:00000001FF
